:0300000002011DDD
:03000B00020050A0
:10005000C28D758A1C758CFC0EBE00010D32788035
:100060007650087652087645087653087653087617
:100070002008765308762F087657087620087650A1
:1000800008763108762E0876300876000876410822
:10009000765308762008764C08764508764408762C
:1000A0002008764708764C08764F0876570876532E
:1000B000087600082276520876450876410876438D
:1000C00008765408764908764F08764E0876200858
:1000D000765408764908764D087645087600087605
:1000E0004308764F08765508764E087654087620F1
:1000F0000876490876530876200876580876580816
:10010000762E08765808760022380C0106303132F7
:100110003334353637383941424344454675A000BB
:10012000759000115E11B5510E510E31C7510E512F
:100130000E510E748031E1510E79805101510E74CF
:10014000C031E1510E798F51017D007E00758A1C0E
:0C015000758CFC75890175A88275901FE4
:10015C00D28CE5905401B401F9C28CC2948D408EBE
:10016C004190010D78B3E54154F0C475F010A4F53D
:10017C005385F052E540540F2552F552E54054F0AA
:10018C00C475F010A4255285F05175A0007590002F
:10019C0031C7510E510E510E748031E1510E799CC4
:1001AC005101510E74C031E1510E79AA51017BBE3F
:1001BC007A64510EDAFCDBF802011D7F0090010914
:1001CC00EF930FF5A0C280C281D282510EC2825130
:1001DC000EBF04EC22F5A0C280C281D282510EC2A5
:1001EC0082510E22F5A0D280C281D282510EC282DF
:1001FC00510E510E22C0E0E7600531F00980F8D0B5
:10020C00E022C000C001780179FFD9FED8FAD001F4
:03021C00D00022ED
:00000001FF
