:0300000002011DDD
:03000B00020050A0
:10005000C28D758A1C758CFC0EBE00010D32788035
:100060007650087652087645087653087653087617
:100070002008765308762F087657087620087650A1
:1000800008763108762E0876300876000876410822
:10009000765308762008764C08764508764408762C
:1000A0002008764708764C08764F0876570876532E
:1000B000087600082276520876450876410876438D
:1000C00008765408764908764F08764E0876200858
:1000D000765408764908764D087645087600087605
:1000E0004308764F08765508764E087654087620F1
:1000F0000876490876530876200876580876580816
:10010000765808765808760022380C0106303132CD
:100110003334353637383941424344454675A000BB
:10012000759000115E11B55107510731C05107514B
:10013000075107748031DA5107798031FA51077419
:10014000C031DA5107798F31FA7D007E00758A1C43
:0C015000758CFC75890175A88275901FE4
:10015C00D28CE5905401B401F9C28CC2948D408EBE
:10016C004190010D78B3E54054F0C493F608E54096
:10017C00540F93F608E54154F0C493F608E5415446
:10018C000F93F675A00075900031C05107510751BF
:10019C0007748031DA5107799C31FA510774C031F8
:1001AC00DA510779AA31FA7BBE7A645107DAFCDBA3
:1001BC00F802011D7F00900109EF930FF5A0C2809A
:1001CC00C281D2825107C2825107BF04EC22F5A032
:1001DC00C280C281D2825107C282510722F5A0D2BD
:1001EC0080C281D2825107C2825107510722C0E0DE
:1001FC00E7600531E90980F8D0E022C000C0017841
:0C020C000179FFD9FED8FAD001D0002201
:00000001FF
