:0300000002097E74
:0C097E00787FE4F6D8FD75813F0209C5C2
:100B8900C1000221000902350000023700000639C0
:060B990000000000000056
:100A5C00E4F5A0C282C280C2817F38FE120BA012C4
:100A6C000AEF7F067E00120BA0120AEF7F0C7E00AD
:100A7C00120BA0120AEF7F017E00120BA0120AEFDC
:070A8C007F807E00020BA039
:040AEF007F047E0002
:100AF300E4FDFCC3ED9FEC9E5015E4FBFA0BBB0039
:0F0B0300010ABA01F8BB7EF50DBD00010C80E4BC
:010B120022C0
:1008D8008E088F098B0A8A0B890C7C277D101208D9
:1008E8004DEF2430120819AE08AF097C277D10128D
:1008F800084D7E037FE8CFCDCFCECCCE12084DEF8A
:100908002430AB0AAA0BA90C90000112082BAE08E0
:10091800AF097C037DE812084D7E007F64CFCDCF00
:10092800CECCCE12084DEF2430AB0AAA0BA90C90FE
:10093800000212082BAE08AF097C007D6412084D36
:100948007E007F0ACFCDCFCECCCE12084DEF24301B
:10095800AB0AAA0BA90C90000312082BAE08AF092A
:100968007C007D0A12084DED2430AB0AAA0BA90CB5
:0609780090000402082BB0
:100BA000C280C281D2828FA07F0A7E00120AF3C265
:020BB00082229F
:100BB200D280C281D2828FA07F0A7E00120AF3C243
:020BC20082228D
:100ACA008B118A128913AB11AA12A913120800609A
:100ADA00130513E5137002051214F9120800FF1228
:050AEA000BB280E222C6
:0C0BC40075C33B43B104D2AF43C34022D1
:040B1300AD07AC0678
:100B1700C2008CC53000FDAF3FC2008DC53000FD5F
:0B0B2700EFFE7C00E4253FFFEC3EFEEB
:010B320022A0
:03004B00020B5352
:100B5300C0E0C0D075D000C007AFC4EF24807005DB
:0C0B630085C53FD200D007D0D0D0E032D2
:030BD500D2942295
:100B3300E4F5C375C373C294EF7F00C454F0FE128F
:0F0B43000B13D294EF7806CEC313CE13D8F9FF5D
:010B52002280
:050BD000D292D2932235
:100B6F00AB07AA06E4F5C375C377C292C293AF036E
:0A0B7F00AE02120B13D293D29222A1
:040A0A00AB07AA0686
:100A0E000536E536700205351425E02423F8A602D6
:100A1E0008A603AE35AF36AC21AD221208A28C3536
:100A2E008D36E53625E02423F8E6FE08E6FFC3EB17
:100A3E009FFFEA9EFEEF2538F538EE3537F537FE87
:0D0A4E00AF387C007D081208A2EE540FFEA8
:010A5B002278
:100A9300E4F50DF50EF582F583F50FF510C201129D
:100AA3000BC4120BD5120BD0E4FFFE120B338E0DC9
:100AB3008F0EE50E7802C333CE33CED8F9F5828E8E
:070AC30083FF120B6F80E1BD
:10098A00020A93E493A3F8E493A34003F68001F2E6
:10099A0008DFF48029E493A3F85407240CC8C3336E
:1009AA00C4540F4420C8834004F456800146F6DF3D
:1009BA00E4800B0102040810204080900B89E47E39
:1009CA00019360BCA3FF543F30E509541FFEE49332
:1009DA00A360010ECF54C025E060A840B8E493A3F9
:1009EA00FAE493A3F8E493A3C8C582C8CAC583CA24
:1009FA00F0A3C8C582C8CAC583CADFE9DEE780BEDC
:010B9F000055
:10080000BB010689828A83E0225002E722BBFE02F6
:09081000E32289828A83E4932229
:10081900BB010689828A83F0225002F722BBFE01BE
:02082900F322B8
:10082B00F8BB010DE58229F582E5833AF583E8F003
:10083B00225006E92582C8F622BBFE05E92582C8AF
:02084B00F22297
:10084D00BC000BBE0029EF8DF084FFADF022E4CC8F
:10085D00F875F008EF2FFFEE33FEEC33FCEE9DEC58
:10086D00984005FCEE9DFE0FD5F0E9E4CEFD22ED9E
:10087D00F8F5F0EE8420D21CFEADF075F008EF2FE8
:10088D00FFED33FD4007985006D5F0F222C398FDD9
:05089D000FD5F0EA2276
:1008A200C2D5EC30E709B2D5E4C39DFDE49CFCEE71
:1008B20030E715B2D5E4C39FFFE49EFE12084DC394
:1008C200E49DFDE49CFC800312084D30D507C3E48F
:0608D2009FFFE49EFE22E0
:00000001FF
