:03000000020D6F7F
:0C0D6F00787FE4F6D8FD75812F020DB6E8
:040F2100300030006C
:100E9B00C10006080000000000000D0E4144432075
:0F0EAB006368616E6E656C2D00041B206D560030
:100DFB00E4F5A0C282C280C2817F38FE120EF112CE
:100E0B000E577F067E00120EF1120E577F0C7E00DE
:100E1B00120EF1120E577F017E00120EF1120E57B9
:070E2B007F807E00020EF142
:040E57007F047E0096
:100E5B00E4FDFCC3ED9FEC9E5015E4FBFA0BBB00CD
:0F0E6B00010ABA01F8BB7EF50DBD00010C80E451
:010E7A002255
:100CC9008E2B8F2C8B2D8A2E892F7C277D10120B32
:100CD90008EF2430120AD4AE2BAF2C7C277D1012DA
:100CE9000B087E037FE8CFCDCFCECCCE120B08EF19
:100CF9002430AB2DAA2EA92F900001120AE6AE2BA3
:100D0900AF2C7C037DE8120B087E007F64CFCDCF2A
:100D1900CECCCE120B08EF2430AB2DAA2EA92F90E2
:100D29000002120AE6AE2BAF2C7C007D64120B0880
:100D39007E007F0ACFCDCFCECCCE120B08EF243068
:100D4900AB2DAA2EA92F900003120AE6AE2BAF2CC9
:100D59007C007D0A120B08ED2430AB2DAA2EA92F99
:060D6900900004020AE6FE
:100EF100C280C281D2828FA07F0A7E00120E5BC2A5
:020F010082224A
:100F0300D280C281D2828FA07F0A7E00120E5BC282
:020F1300822238
:100E32008B2B8A2C892DAB2BAA2CA92D120ABB60D5
:100E420013052DE52D7002052C14F9120ABBFF12B1
:050E52000F0380E22205
:0C0F150075C33343B104D2AF43C3402284
:040E7B00AD07AC060D
:100E7F00C2008CC53000FDAF1FC2008DC53000FD14
:0B0E8F00EFFE7C00E4251FFFEC3EFEA0
:010E9A002235
:03004B00020EBBE7
:100EBB00C0E0C0D075D000C007AFC4EF2480700570
:0C0ECB0085C51FD200D007D0D0D0E03287
:030F2500D2942241
:100ED700C294EF7F00C454F0FE120E7BD294EF78D9
:090EE70006CEC313CE13D8F9FFA7
:010EF00022DF
:100B6B00E4F521F52278237C00FD7BFF7A0F7921B8
:100B7B00FE7F02120A9578257C007D007BFF7A0FA1
:100B8B0079237E007F02120A95E4F527F528F529D3
:100B9B00F52A120F15120F25120DFB7FD07E0712AF
:100BAB000E5BAF22AE21120ED78E278F28AC27AD4E
:100BBB0028E412090B7B9D7A73794E78401208005A
:100BCB001209448E278F287B007A007908120CC9F2
:100BDB00AE21AF227C007D0A120B08EF2430F523E7
:100BEB00AE21AF227C007D0A120B08ED2430F525D7
:100BFB007F807E00120EF17B007A00790E120E328E
:100C0B007B007A007923120E327B007A0079251251
:100C1B000E327FC07E00120EF17B007A0079081233
:100C2B000E327B007A00791B120E32E52160030233
:100C3B000BA6E522B40E004003020BA6900C4EF857
:100C4B00282873020C78020BA6020C81020BA60259
:100C5B000C8A020BA6020C93020C9C020BA6020C34
:100C6B00A5020BA6020CAE020CB7020CC07521003C
:100C7B00752202020BA6752100752204020BA675C4
:100C8B002100752206020BA6752100752207020BA7
:100C9B00A6752100752209020BA675210075220B82
:100CAB00020BA675210075220C020BA6752100758F
:0E0CBB00220D020BA6752100752202020BA667
:10080000EC4D6011E8497017ED33EC3304600DE4F2
:10081000FCFFFEFD22E933E8330470F80209B01250
:10082000097B58046009E4CC248150062850090251
:1008300009BA2840030209B7C0E0EB4A7044B98006
:1008400006D0E0FB0209A6EF4E701CBD8008EBFF4E
:10085000EAFEE9FD80EBE98DF0A4FEE5F00208E98F
:10086000E9CDF9EAFEEBFFEF89F0A4FCE5F0CE89D3
:10087000F0A42EFFE435F0CD89F0A42DFEE435F090
:100880008067EF4E7005BD80D780C3EF8BF0A4ACBE
:10089000F0EE8BF0A42CFCE435F0F8EF8AF0A42CF9
:1008A000E5F038FCE433CB8DF0A42CFCE5F03BF80C
:1008B000EE8AF0A42CFCE5F038F8E433CF89F0A4FC
:1008C0002CFCE5F038CF3400CE89F0A42FFFE5F002
:1008D0003EFEE433C98DF0A42EFEE5F039CD8AF05A
:1008E000A42FFFE5F03EFEE43DFD33D0E0FB5007D2
:1008F0000BBB000F0209BAEC2CFCEF33FFEE33FE0A
:06090000ED33FD02099237
:1009060075F020800E75F010800575F0087D007E6C
:10091600007F003392D530D503120B5DEC334010C7
:10092600EF33FFEE33FEED33FDEC33FCD5F0ED2275
:0E093600E5F0247EA2D513CC92E7CDCEFF22B1
:10094400EDD2E7CD33EC3392D524814006E4FFFEAB
:10095400FDFC22FCE4CFCECDCC24E0501174FF800A
:10096400EDC3CC13CCCD13CDCE13CECF13CF0470A7
:07097400F030D5DE020B5D3F
:10097B00E9D2E7C933E833F892D5EDD2E7CD33ECC2
:07098B0033FC5002B2D5223B
:10099200EC30E7100FBF000C0EBE00080DBD0004C6
:1009A2000BEB6014A2D5EB13FCED92E7FD2274FF72
:1009B200FCFDFEFF22E480F8A2D574FF13FC7D80CB
:0309C200E480EFDF
:100D7B00020B6BE493A3F8E493A34003F68001F218
:100D8B0008DFF48029E493A3F85407240CC8C33379
:100D9B00C4540F4420C8834004F456800146F6DF48
:100DAB00E4800B0102040810204080900E9BE47E2F
:100DBB00019360BCA3FF543F30E509541FFEE4933D
:100DCB00A360010ECF54C025E060A840B8E493A304
:100DDB00FAE493A3F8E493A3C8C582C8CAC583CA2F
:100DEB00F0A3C8C582C8CAC583CADFE9DEE780BEE7
:010EBA000037
:1009C500E709F608DFFA8046E709F208DFFA803E14
:1009D50088828C83E709F0A3DFFA8032E309F60801
:1009E500DFFA8078E309F208DFFA807088828C8369
:1009F500E309F0A3DFFA806489828A83E0A3F6081D
:100A0500DFFA805889828A83E0A3F208DFFA804CF6
:100A150080D280FA80C680D4806980F280338010CD
:100A250080A680EA809A80A880DA80E280CA803336
:100A350089828A83ECFAE493A3C8C582C8CCC583AE
:100A4500CCF0A3C8C582C8CCC583CCDFE9DEE7807E
:100A55000D89828A83E493A3F608DFF9ECFAA9F0FD
:100A6500EDFB2289828A83ECFAE0A3C8C582C8CC53
:100A7500C583CCF0A3C8C582C8CCC583CCDFEADE6C
:100A8500E880DB89828A83E493A3F208DFF980CCCE
:100A950088F0EF60010E4E60C388F0ED2402B404C7
:100AA5000050B9F582EB2402B4040050AF2323456E
:060AB5008223900A157374
:100ABB00BB010689828A83E0225002E722BBFE0239
:090ACB00E32289828A83E493226C
:100AD400BB010689828A83F0225002F722BBFE0101
:020AE400F322FB
:100AE600F8BB010DE58229F582E5833AF583E8F046
:100AF600225006E92582C8F622BBFE05E92582C8F2
:020B0600F222D9
:100B0800BC000BBE0029EF8DF084FFADF022E4CCD1
:100B1800F875F008EF2FFFEE33FEEC33FCEE9DEC9A
:100B2800984005FCEE9DFE0FD5F0E9E4CEFD22EDE0
:100B3800F8F5F0EE8420D21CFEADF075F008EF2F2A
:100B4800FFED33FD4007985006D5F0F222C398FD1B
:050B58000FD5F0EA22B8
:0E0B5D00C3E49FFFE49EFEE49DFDE49CFC22A9
:00000001FF
