:03000000020200F9
:1001000078E1763108763708763008763008763729
:100110000876300876300876350876300876002282
:1001200078F1764108766108767208766F08766E07
:1001300008762008764A08766F08766808766E0892
:100140007620087653087661087662087675087618
:060150000022380C01063C
:1002000075A0007590003100312051755175512E47
:1002100051755175517574805148517579E1516826
:10022000517574C05148517579F1516880FE7F0055
:10023000900152EF930FF5A0C280C281D282517516
:10024000C2825175BF04EC22F5A0C280C281D28265
:100250005175C282517522F5A0D280C281D28251DD
:1002600075C2825175517522C0E0E760055157098A
:1002700080F8D0E022C000C001780179FFD9FED813
:06028000FAD001D00022BB
:00000001FF
