:03000000020800F3
:0C080000787FE4F6D8FD7581650208479A
:10090E00C1000263000020402100000018003000EA
:10091E0046005A006A0075007D007F007D0075005C
:10092E006A005A004600300018000000E700CF00B1
:10093E00B900A50095008A008200800082008A001E
:0D094E009500A500B900CF00E70261000090
:0C09ED0075C33B43B104D2AF43C34022AA
:04095C00AD07AC0631
:10096000C2008CC53000FDAF65C2008DC53000FDF2
:0B097000EFFE7C00E42565FFEC3EFE7E
:01097B002259
:03004B0002099C0B
:10099C00C0E0C0D075D000C007AFC4EF2480700594
:0C09AC0085C565D200D007D0D0D0E03265
:0509F900D292D293220E
:1009D300AB07AA06E4F5C375C377C292C293AF030C
:0A09E300AE0212095CD293D29222F8
:1009B800E4F508F509F50AF50B1209ED1209F975C0
:0B09C8008922758CF8D2A9D28C80FE29
:10097C00E4FDFCC3ED9FEC9E5015E4FBFA0BBB00B1
:0F098C00010ABA01F8BB7EF50DBD00010C80E435
:01099B002239
:03000B0002088C5C
:10088C00C0E0C0D075D000C000C002C003C004C01E
:10089C0005C006C007C28C0564E56470020563647C
:1008AC002045637004F563F564E56425E02421F8C4
:1008BC00E6FE08E6FF2480FDE43EF5618D62EF2440
:1008CC0080F5A0E562C4F8540FC868F562E561C410
:1008DC0054F048F56145627E0060047F0180027F20
:1008EC00008E618F621209D3758CF8D28CC28DD0B8
:1008FC0007D006D005D004D003D002D000D0D0D081
:02090C00E032D7
:10080C000209B8E493A3F8E493A34003F68001F241
:10081C0008DFF48029E493A3F85407240CC8C333ED
:10082C00C4540F4420C8834004F456800146F6DFBC
:10083C00E4800B010204081020408090090EE47E35
:10084C00019360BCA3FF543F30E509541FFEE493B1
:10085C00A360010ECF54C025E060A840B8E493A378
:10086C00FAE493A3F8E493A3C8C582C8CAC583CAA3
:10087C00F0A3C8C582C8CAC583CADFE9DEE780BE5B
:01095B00009B
:00000001FF
