:0300000002014CAE
:10005000380C0106303132333435363738394142C5
:100060004344454641505E6C009000547A00E6FDE2
:1000700054F0C493F709ED540F93F708090ABA0333
:10008000ED2278417641087642087650087653088A
:10009000765708762008763D087620080808080874
:1000A000080876FF087652087630087631087632EE
:1000B00008762008763D0876200808080808080811
:1000C00076FF087652087633087634087635087657
:1000D0002008763D0876200808080808080876FFFA
:1000E0000876520876360876370876530876500830
:1000F000763D0876200808080808080876FF228858
:100100002489258A268D277821F608A6F008A6D00E
:10011000087821794911697821A62408A62508E5DF
:1001200026F6087821795711697821EBF608ECF664
:0E01300008A627087821796511697821EEF676
:10013E0008EFF608A681087821797311692275A057
:10014E00007590007B00118231E031E0319511FF96
:10015E0031E031E031E0748031AF31E0900064EB9A
:10016E009360DBF931CF0B74C031AF31E090006496
:10017E00EB93F931CF758AC875F03231E0D5F0FBCB
:10018E00D58AF50B02015C7F00900050EF930FF5BE
:10019E00A0C280C281D28231E0C28231E0BF04ECC3
:1001AE0022F5A0C280C281D28231E0C28231E02229
:1001BE00F5A0D280C281D28231E0C28231E031E03C
:1001CE0022C0E0E7B4FF030201DD31BE0980F4D0A6
:1001DE00E022C000C0017D017EFFDEFEDDFAD0010F
:0301EE00D000221C
:00000001FF
