:0300000002027782
:1002000075506075517075520675537F7560047531
:10021000610775620975630B75640C75650275700D
:100220000575710975720C75730D75740475750F0C
:1002300022E5312533F536E5303532F535740034B5
:1002400000F534227AFF7D007C000AA850E82AF8E5
:10025000E6F5F0A851E82AF8E6FEA4F53185F0307D
:100260008D338C32120231AD36AC35EAB552DBEC4F
:0F0270002DA853F6F5902212020012024480FED0
:00000001FF
