:03000000020148B2
:10005000380C0106303132333435363738394142C5
:1000600043444546900054FD54F0C493F709ED54C1
:100070000F93F70977FF227821761E08762D0876F0
:100080003C08764B08765A087669087678087687B1
:100090000876960876A50876B40876C30876D2085E
:1000A00076E10876F008769E08760F0876F80876EE
:1000B000870876E208767D0876C90876140876D631
:1000C0000876330876B508762C0876A108766D0890
:1000D000765B087640227841764C08766F08766326
:1000E00008766108767408766908766F08766E0877
:1000F000763A08762008080876FF08764308766F77
:1001000008766E08767408766508766E0876740848
:10011000767308763A08762008080876FF227590EC
:10012000FF1201EB53900F120200E590F58BC4F51E
:100130009031F522E561C454F0F8E562540F28F8D7
:0B014000F5607563FF11642275A000DC
:10014B007590007B0011D65100510031A051005128
:10015B0000510012011E858B6112011E858B627985
:10016B004B1201341177A860E654F0C4F561E654E4
:10017B000FF5627958120134748031BA510079410C
:10018B0031DA510074C031BA5100794E31DA510075
:10019B0031EB0201587F00900050EF930FF5A0C296
:1001AB0080C281D2825100C2825100BF04EC22F581
:1001BB00A0C280C281D2825100C282510022F5A01E
:1001CB00D280C281D2825100C2825100510022C022
:1001DB00E0E7B4FF030201E831C90980F4D0E02263
:1001EB0075F0031201F5D5F0FA227D147EC851008B
:0C01FB00DEFCDDF822758AFFD58AFD22AB
:00000001FF
