:03000000020800F3
:0C080000787FE4F6D8FD758139020847C6
:0E0A6700C10002210009023500000237000024
:0C0A760075C33B43B104D2AF43C3402220
:0409CB00AD07AC06C2
:1009CF00C2008CC53000FDAF39C2008DC53000FDAF
:0B09DF00EFFE7C00E42539FFEC3EFE3B
:0109EA0022EA
:03004B00020A4B5B
:100A4B00C0E0C0D075D000C007AFC4EF24807005E4
:0C0A5B0085C539D200D007D0D0D0E032E1
:030A8700D29422E4
:1009EB00E4F5C375C373C294EF7F00C454F0FE12D9
:0F09FB0009CBD294EF7806CEC313CE13D8F9FFF1
:010A0A0022C9
:050A8200D292D2932284
:100A0B00E4F5C375C377C292C293EFC4F8540FC811
:100A1B0068FFEEC454F048FE1209CBD293D2922257
:04097900AB07AA0618
:10097D000536E536700205351425E02423F8A60268
:10098D0008A603AE35AF36AC21AD2212088C8C35DE
:10099D008D36E53625E02423F8E6FE08E6FFC3EBA9
:1009AD009FFFEA9EFEEF2538F538EE3537F537FE19
:0D09BD00AF387C007D0812088CEE540FFE50
:0109CA00220A
:10091700E4F508F509F50AF50BF50CF50DC201121A
:100927000A76120A87120A827F077E00120A2B2094
:1009370001097405250DF50DE4800874FB250DF5F7
:100947000D74FF350CF50CAF0DAE0C120A0BD3E589
:100957000D9405E50C94004006E50C94F04004C2A4
:100967000180C5C3E50D94FFE50C940F40BAD20191
:0209770080B648
:100A2B00E4FDFCC3ED9FEC9E5015E4FBFA0BBB0001
:0F0A3B00010ABA01F8BB7EF50DBD00010C80E485
:010A4A002289
:10080C00020917E493A3F8E493A34003F68001F2E2
:10081C0008DFF48029E493A3F85407240CC8C333ED
:10082C00C4540F4420C8834004F456800146F6DFBC
:10083C00E4800B0102040810204080900A67E47EDB
:10084C00019360BCA3FF543F30E509541FFEE493B1
:10085C00A360010ECF54C025E060A840B8E493A378
:10086C00FAE493A3F8E493A3C8C582C8CAC583CAA3
:10087C00F0A3C8C582C8CAC583CADFE9DEE780BE5B
:010A75000080
:10088C00C2D5EC30E709B2D5E4C39DFDE49CFCEE87
:10089C0030E715B2D5E4C39FFFE49EFE1208C2C335
:1008AC00E49DFDE49CFC80031208C230D507C3E430
:0608BC009FFFE49EFE22F6
:1008C200BC000BBE0029EF8DF084FFADF022E4CC1A
:1008D200F875F008EF2FFFEE33FEEC33FCEE9DECE3
:1008E200984005FCEE9DFE0FD5F0E9E4CEFD22ED29
:1008F200F8F5F0EE8420D21CFEADF075F008EF2F73
:10090200FFED33FD4007985006D5F0F222C398FD63
:050912000FD5F0EA2200
:00000001FF
